001000000000050GUSTAVO BARRENECHE RIVERA               MANZANA A LOTE 1                   01000400000019000000580000003900000000000064
001000000000100SERGIO IVAN VILLA MAYA                  MANZANA A LOTE 2-10                01000400000014000000360000002200000000000064
001000000000150MANUEL LOPEZ FERRO                      MANZANA A LOTE 3                   01000400000038000000680000003000000000000064
001000000000650MARTHA ADRIANA LEON VELASCO             MANZANA B LOTE 4                   01000400000018000000410000002300000000000064
001000000000700JUAN FERNANDO ISAZA POSADA              MANZANA B LOTE 5                   01000400000009000000280000001900000000000064
001000000000750FROILAN PINZON COERRA                   MANZANA B LOTE 6                   01000400000021000000620000004100000000000064
001000000000800ALVARO CADAVID ESCOBAR                  MANZA B LOTE 7-8                   01000400000025000000570000003200000000000064
001000000000950DIANA ALEJANDRA LONSOÑO RESTREPO        MANZANA B LOTE 11                  01000400000022000000650000004300000000000064
001000000001150OLGA LUCIA SEGURO GARCIA                MANZANA C LOTE 1                   01000400000004000000270000002300000000000064
001000000001300AZAHAR DEL VIENTO S.A                   MANZANA C LOTE 3B                  01000400000018000000390000002100000000000064
001000000001550JUAN FELIPE HENAO ARANGO                MANZANA C LOTE 7                   01000400000132000001740000004200000000000064
001000000001700JACQUELIN CRISTINA GUERRA MONTAÑO       MANZANA D LOTE 3A                  01000400000004000000310000002700000000000064
001000000001750MARTHA CECILIA SIERRA GARAVITO          MANZANA D LOTE 3B                  01000400000025000000500000002500000000000064
001000000001800JACQUELIN CRISTINA GUERRA MONTAÑO       MANZANA D LOTE 4A                  01000400000010000000480000003800000000000064
001000000001850INVERSIONES CAUCA ANDINA S.A            MANZANA D LOTE 4B                  01000400000029000000560000002700000000000064
001000000001900ALEJANDRO ESTRADA MONTOYA               MANZANA D LOTE 5A                  01000400000001000000640000006300000000000064
001000000001950JOSE ANTONIO CADAVID RAMIREZ            MANZANA D LOTE 5B                  01000400000006000000210000001500000000000064
001000000002000INVERSIONES CAUCA ANDINA S.A            MANZANA D LOTE 6A                  01000400000040000001290000008900000000000064
001000000002050SANDRA ISABEL ZAPATA CEBALLO            MANZANA D LOTE 6B                  01000400000006000000180000001200000000000064
001000000002100CAUCA VIEJO TURISTICO S.A               MANZANA D LOTE 6C                  03000400000056000001110000005500000000000064
001000000002150ANA PASTORA GOMEZ GIRALDO               MANZANA E LOTE 1                   01000400000063000001130000005000000000000064
001000000002550PROYECTO CAUCA VIEJO S.A                E: LOCAL INT SALA D VENTAS LOTE 10103000400000000000000010000000100000000000064
001000000002600ADMINISTRACION CAUCA VIEJO P.H.         E: LOCAL INTE LA ALCALDIA  LOTE 10101000400000001000000020000000100000000000064
001000000002650PROYECTO CAUCA VIEJO S.A                E: LOCAL INTERI LA FRUTERA LOTE 10203000400000030000000350000000500000000000064
001000000002700ADMINISTRACION CAUCA VIEJO P.H.         E: LOCAL INTERI CASA CURAL LOTE 10201500400000001000000060000000500000000000064
001000000002750CARLOS ALBERTO MARTINEZ LEGARDA         MANZANA F LOTE 1A                  01000400000002000000250000002300000000000064
001000000002800CARLOS ALBERTO MARTINEZ LEGARDA         MANZANA F LOTE 1B                  01000400000012000000270000001500000000000064
001000000002850ENRIQUE ESCOBAR URIBE                   MANZANA F LOTE 2A                  01000400000018000000420000002400000000000064
001000000002900ANDRES FERNANDEZ CADAVID                MANZANA F LOTE 2B                  01000400000042000000690000002700000000000064
001000000002950MIGUEL ABELARDO MORENO TOVAR            MANZANA F LOTE 3A                  01000400000021000000530000003200000000000064
001000000003000LUIS FERNANDO IRAL VELEZ                MANZANA F LOTE 3B                  01000400000010000000320000002200000000000064
001000000003100GUILLERMO LEON ARIAS OSPINA             MANZANA F LOTE 4B                  01000400000052000001310000007900000000000064
001000000003300EDUARDO ALFONSO MOLINA CORREA           MANZANA G LOTE 1A Y 1C             01000400000021000000450000002400000000000064
001000000003500JUAN GUILLERMO SALDARRIAGA SANIN        MANZANA G LOTE 2C                  01000400000014000000520000003800000000000064
001000000003600JUAN GUILLERMO SALDARRIAGA SANIN        MANZANA G LOTE 4                   01000400000020000000730000005300000000000064
001000000003750ADMINISTRACION CAUCA VIEJO P.H.         MANAN H PARQUE PRINCIPAL           01000400000000000000170000001700000000000064
001000000003850ANA CATALINA LONDOÑO VILLA              MANZANA I LOTE 2                   01000400000014000000790000006500000000000064
001000000003950ANDRES RESTREPO OCHOA                   MANZANA I LOTE 4                   03000400000069000002340000016500000000000064
001000000003960ANDRES RESTREPO OCHOA                   MANZANA I LOTE 5A                  03000400000008000000490000004100000000000064
001000000004000FONDO DE EMPLEADOS BANCOLOMBIA          MANZANA I LOTE 5B                  01000400000011000000880000007700000000000064
001000000004050ANA MARCELA MUÑOZ RODRIGUEZ             MANZANA I LOTE 6A                  01000400000008000000220000001400000000000064
001000000004100PABLO MORENO CONZALEZ                   MANZANA I LOTE 6B                  01000400000011000000300000001900000000000064
001000000004150CARLOS JAIME BAHAMON TRUJILLO           MANZANA J LOTE 1                   01000400000012000000560000004400000000000064
001000000004250MARIA HELENA ARANGO DE VELEZ            MANZANA JLOTE 3                    03000400000037000000750000003800000000000064
001000000004300MARIA HELENA ARANGO DE VELEZ            MANZANA J LOTE 4                   03000400000011000000430000003200000000000064
001000000004500JUAN FERNANDO GALVIS VALENCIA           MANZANA J LOTE 8                   01000400000013000000310000001800000000000064
001000000004600JADER ALBERTO MONTOYA PAREJA            MANZNA K LOTE 1B                   01000400000020000000450000002500000000000064
001000000004750HUGO ZAPATA HURTADO                     MANZNA K LOTE 4                    01000400000031000000830000005200000000000064
001000000004800RAFAEL TOCANCIPA RODRIGUEZ              MANZNA K LOTE 5                    01000400000031000000570000002600000000000064
001000000004850RAFAEL TOCANCIPA RODRIGUEZ              MANZNA K LOTE 5                    01000400000019000000380000001900000000000064
001000000004900LUZ HELENA MONTOYA                      MANZNA K LOTE 7                    01000400000009000000380000002900000000000064
001000000005100REGINA PIEDRAHITA DE POSADA             MANZANA L LOTE 4-5                 01000400000061000001000000003900000000000064
001000000005200SANTAMEDA S.A                           MANZANA M LOTE 2                   01000400000006000000100000000400000000000064
001000000005250SANTAMEDA S.A                           MANZANA M LOTE 3                   01000400000023000000530000003000000000000064
001000000005450JOHN EBER CASTRO MORALES                MANZANA N LOTE 4                   01000400000027000000740000004700000000000064
001000000005600JUAN CARLOS MOLINA CORREA               MANZANA N LOTE 7-8                 01000400000010000000280000001800000000000064
001000000005650GABRIEL JAIME ZAPATA RUIZ               MANZANA N LOTE 9                   01000400000011000000410000003000000000000064
001000000005750JOSE ORLANDO OSORIO MESA                MANZANA N LOTE 11                  01000400000003000000110000000800000000000064
001000000005800LUISA MARIA WOLFF ECHEVERRY             MANZANA O LOTE 1                   01000400000028000000460000001800000000000064
001000000005900NATALIA HERRERA RESTREPO                MANZANA O LOTE 3                   01000400000207000003180000011100000000000064
001000000005950NATALIA HERRERA RESTREPO                MANZANA O LOTE 4                   01000400000008000000230000001500000000000064
001000000006050ANA MARIA ALVAREZ PELAEZ                MANZANA O LOTE 6                   01000400000005000000180000001300000000000064
001000000006100ANA MARIA ALVAREZ PELAEZ                MANZANA O LOTE 7-8                 01000400000042000001540000011200000000000064
001000000006200CARLOS VASQUEZ TAMAYO                   MANZANA O LOTE 10                  01000400000012000000440000003200000000000064
001000000006250JUAN FERNANDO MEJIA ESCOBAR             MANZANA P LOTE 1-2                 01000400000036000001010000006500000000000064
001000000006300JUAN CARLOS ORTIZ ALZATE                MANZANA P LOTE 3                   01000400000009000000430000003400000000000064
001000000006350JUAN FERNANDO BAENA BARRIENTOS          MANZANA P LOTE 4                   01000400000014000000850000007100000000000064
001000000006400CARLOS EMILIO URIBE LOPERA              MANZANA P LOTE 5                   01000400000021000000550000003400000000000064
001000000006500MARTHA LUCIA HERRERA VELASQUEZ          MANZANA P LOTE 7                   01000400000000000000260000002600000000000064
001000000006550GABRIEL ESTEBAN HOYOS ARANGO            MANZANA P LOTE 8                   01000400000000000000270000002700000000000064
001000000006650JORGE LUIS JARAMILLO CARDONA            MANZANA P LOTE 10                  01000400000020000000630000004300000000000064
001000000006700GUILLERMO GONZALEZ GIRALDO              MANZANA O LOTE 11                  01000400000012000000490000003700000000000064
001000000008700FRANCISCO JAVIER ZULUAGA ROLDAN         VEREDA CAUCA ABAJO LOTE 1          01000400000056000001240000006800000000000064
001000000008750OLGA CECILIA JIMENEZ NARANJO            VEREDA CAUCA ABAJO LOTE 2          01000400000021000000640000004300000000000064
001000000008900JULIAN ESTEBAN RIVERA                   VEREDA CAUCA ABAJO LOTE 5          01000400000080000001660000008600000000000064
001000000008950ADMINISTRACION                          VEREDA CAUCA ABAJO LOCAL INT LOTE 903000400000075000001040000002900000000000064
001000000009000NORMAN SPIR YEPES                       VEREDA CAUCA ARRIBA LOTE 1         01000400000023000000670000004400000000000064
001000000009050MIGUEL ALFREDO MONCADA CORREDOR         VEREDA CAUCA ARRIBA LOTE 2         01000400000071000001270000005600000000000064
001000000009100FABIO DE J. YEPES SANCHEZ               VEREDA CAUCA ARRIBA LOTE 3         01000400000003000000550000005200000000000064
001000000009200ALVBA LUZ GARCIA CORREA                 VEREDA CAUCA ARRIBA LOTE 5         01000400000014000000590000004500000000000064
001000000009350HERIBERTO DE JESUS MARIN GARCIA         VEREDA CAUCA ARRIBA LOTE 8         01000400000000000000100000001000000000000064
001000000009550FELIPE GAVIRIA OBREGON                  VEREDA EL LAGO LOTE 1              01000400000041000000990000005800000000000064
001000000009600DORA LUCIA GONZALEZ SEPULVEDA           VEREDA EL LAGO LOTE 2              01000400000035000000660000003100000000000064
001000000009650EVELIN YULIANA ZAPATA ORTIZ             VEREDA EL LAGO LOTE 3              01000400000021000002390000021800000000000064
001000000009750OSCAR MAURICIO OSORIO ESCOBAR           VEREDA EL LAGO LOTE 5              01000400000030000000660000003600000000000064
001000000009800LINA MARIA BOHORQUEZ VALENCIA           VEREDA EL LAGO LOTE 6              01000400000037000001130000007600000000000064
001000000009850ROGER CLINTON LANGLEY                   VEREDA EL LAGO LOTE 7              01000400000006000000470000004100000000000064
001000000009900RAFAEL DE LA HOZ ONATRA                 VEREDA EL LAGO LOTE 8              01000400000015000001480000013300000000000064
001000000009950LILIANA JUDITH PALLARES BORJA           VEREDA EL LAGO LOTE 9              01000400000007000000170000001000000000000064
001000000010000FRANCISCO AURELIANO GARCIA  JIMENEZ     VEREDA EL LAGO LOTE 10             01000400000034000001110000007700000000000064
001000000010050DORIAN EMILIA HERNANDEZ VALENCIA        VEREDA EL LAGO LOTE 11             01000400000039000000880000004900000000000064
001000000010150MECJ S.A.S                              VEREDA EL LAGO LOTE 13             01000400000024000000780000005400000000000064
001000000010200MARIA PATRICIA MUÑOZ CAÑAS              LOCAL EXTERIOR LOTE 1-2            01000400000016000000420000002600000000000064
001000000010700ADMINISTRACION CAUCA VIEJO P.H.         C.E.R. CAUCA VIEJO                 04000400000009000000250000001600000000000064
001000000010750ADMINISTRACION CAUCA VIEJO P.H.         FONDA LA PANELERA                  03000400000114000002540000014000000000000064
001000000010800ADMINISTRACION CAUCA VIEJO P.H.         FONDA MINERA EL DESPECHO           03000400000000000000000000000000000000000064
001000000010850ADMINISTRACION CAUCA VIEJO P.H.         PTAR                               01000400000002000000080000000600000000000064
001000000010900ADMINISTRACION CAUCA VIEJO P.H.         LA PESEBRERA                       03000400000002000003000000029800000000000064
001000000010950ADMINISTRACION CAUCA VIEJO P.H.         PLANTA DE RESIDUOS SOLIDOS         01000400000002000000030000000100000000000064